:020000040800F2
:10000000082000203D0400085D0400086104000889
:1000100065040008690400086D0400080000000081
:100020000000000000000000000000007104000853
:100030007504000800000000790400087D04000831
:100040008104000885040008890400088D04000864
:100050009104000895040008990400089D04000814
:10006000A1040008A5040008A9040008AD040008C4
:10007000B1040008B5040008B9040008BD04000874
:10008000C1040008C5040008C9040008CD04000824
:10009000D1040008D5040008D9040008DD040008D4
:1000A000E1040008E5040008E9040008ED04000884
:1000B000F1040008F5040008F9040008FD04000834
:1000C0000105000805050008090500080D050008E0
:1000D0001105000815050008190500081D05000890
:1000E000A5010008210500082505000829050008CC
:1000F0002D05000831050008350500083905000800
:100100003D050008410500084505000849050008AF
:100110004D0500085105000855050008590500085F
:100120005D0500086105000865050008690500080F
:100130006D050008710500087505000879050008BF
:100140007D0500089D02000881050008850500085E
:10015000890500088D05000891050008950500082F
:10016000990500089D050008A1050008A5050008DF
:10017000A9050008AD050008B10500080000000051
:10018000B5050008B9050008010049B2002908D4E6
:10019000012210F01F018A40564940B2400941F83F
:1001A0002020704754480168890406D5016851F43D
:1001B00000510160012051490870704750480168A2
:1001C00051F0010101605FF09040016831F440613D
:1001D0000160016851F4806101607047494801681D
:1001E00051F01F0101604848016851F002010160AF
:1001F0004648016851F0040101604548016851F02A
:100200000201016030BF704710B54248016851F0EB
:10021000805101603C490A6852F480720A600A68A1
:10022000D205FCD53C490A6852F001020A600A680E
:100230009207FCD539490A6852F001020A600A683F
:100240009207FCD536490A6832F440220A600A68EF
:1002500052F440220A60016851F0004101603148C7
:100260000168490849000160016831F4606101607A
:10027000274C206850F0010020604FF480402A494C
:1002800008602A48016851F0020101604120FFF72F
:100290007BFF206850F00400206010BD24480068F7
:1002A00080070FD52348016851F002010160224800
:1002B0000068800603D520202049086002E0202045
:1002C0001F490860704780B51848016851F0020165
:1002D00001604120FFF758FF01BD80B5FFF76EFFB9
:1002E000FFF792FFFFF7EFFF202014490860FFF7A8
:1002F00075FFFCE700E100E014040140000000206D
:100300004C100240187000400070004010ED00E0FA
:10031000107C00405810024090100240941002409F
:10032000881002400C7C0040187C0040087C004093
:10033000007C0040047C0040140000482800004875
:100340001800004830B4002512E050F8042BD30701
:1003500044BF4A44521E091F042942F8045BFAD2E2
:1003600013468C0744BF15809B1CC90748BF1D70EE
:1003700050F8041B0029E8D130BC704710B507497C
:1003800079441831064C7C44163404E00A68081D90
:10039000114488470146A142F8D110BD2C0000004D
:1003A000380000004EF68851CEF20001086840F493
:1003B00070000860BFF34F8FBFF36F8F4FF0017075
:1003C000E1EE100A704700007DFFFFFF040000000F
:1003D000000000200000000000F00DF8002801D00F
:1003E000FFF7CCFFAFF300800020AFF30080FFF7F2
:1003F00074FF00F002F80120704700F001B800001F
:100400000746384600F002F8FBE7000080B5AFF37E
:100410000080024A11001820ABBEFBE72600020054
:100420000548014603B4684680F30988AFF30080AD
:10043000FFF7B8FFFFF7D0FFA5EDF5FE01488047B5
:10044000014800474D0400082104000802480168E3
:1004500051F470010160704788ED00E0FFF7FEBFC6
:10046000FFF7FEBFFFF7FEBFFFF7FEBFFFF7FEBFC0
:10047000FFF7FEBFFFF7FEBFFFF7FEBFFFF7FEBFB0
:10048000FFF7FEBFFFF7FEBFFFF7FEBFFFF7FEBFA0
:10049000FFF7FEBFFFF7FEBFFFF7FEBFFFF7FEBF90
:1004A000FFF7FEBFFFF7FEBFFFF7FEBFFFF7FEBF80
:1004B000FFF7FEBFFFF7FEBFFFF7FEBFFFF7FEBF70
:1004C000FFF7FEBFFFF7FEBFFFF7FEBFFFF7FEBF60
:1004D000FFF7FEBFFFF7FEBFFFF7FEBFFFF7FEBF50
:1004E000FFF7FEBFFFF7FEBFFFF7FEBFFFF7FEBF40
:1004F000FFF7FEBFFFF7FEBFFFF7FEBFFFF7FEBF30
:10050000FFF7FEBFFFF7FEBFFFF7FEBFFFF7FEBF1F
:10051000FFF7FEBFFFF7FEBFFFF7FEBFFFF7FEBF0F
:10052000FFF7FEBFFFF7FEBFFFF7FEBFFFF7FEBFFF
:10053000FFF7FEBFFFF7FEBFFFF7FEBFFFF7FEBFEF
:10054000FFF7FEBFFFF7FEBFFFF7FEBFFFF7FEBFDF
:10055000FFF7FEBFFFF7FEBFFFF7FEBFFFF7FEBFCF
:10056000FFF7FEBFFFF7FEBFFFF7FEBFFFF7FEBFBF
:10057000FFF7FEBFFFF7FEBFFFF7FEBFFFF7FEBFAF
:10058000FFF7FEBFFFF7FEBFFFF7FEBFFFF7FEBF9F
:10059000FFF7FEBFFFF7FEBFFFF7FEBFFFF7FEBF8F
:1005A000FFF7FEBFFFF7FEBFFFF7FEBFFFF7FEBF7F
:0C05B000FFF7FEBFFFF7FEBFFFF7FEBF26
:0400000508000421CA
:00000001FF
